:020000040800F2
:1000000000200020C50C0008290A0008310A000859
:1000100000000000000000000000000000000000E0
:10002000000000000000000000000000390A000885
:100030000000000000000000430A00084D0A00080C
:10004000150D0008150D0008150D0008150D000808
:10005000150D0008150D0008150D0008150D0008F8
:1000600000000000150D0008150D0008150D000812
:10007000150D0008150D0008000000005D0A0008BD
:100080000000000000000000000000000000000070
:10009000150D000800000000150D0008150D0008E2
:1000A00000000000150D0008000000000000000026
:1000B000150D0008150D00080000000000000000EC
:1000C00010B5064C2378002B07D1054B002B02D02E
:1000D000044800E000BF0123237010BD6800002029
:1000E00000000000384E0008044B10B5002B03D070
:1000F0000349044800E000BF10BDC04600000000F6
:100100006C000020384E000803B4714649084000D6
:100110004900095E49008E4403BC70470022430831
:100120008B4274D303098B425FD3030A8B4244D3BF
:10013000030B8B4228D3030C8B420DD3FF22090201
:1001400012BA030C8B4202D31212090265D0030BC0
:100150008B4219D300E0090AC30B8B4201D3CB03B6
:10016000C01A5241830B8B4201D38B03C01A5241F8
:10017000430B8B4201D34B03C01A5241030B8B42FA
:1001800001D30B03C01A5241C30A8B4201D3CB02E5
:10019000C01A5241830A8B4201D38B02C01A5241CA
:1001A000430A8B4201D34B02C01A5241030A8B42CD
:1001B00001D30B02C01A5241CDD2C3098B4201D3E5
:1001C000CB01C01A524183098B4201D38B01C01A63
:1001D000524143098B4201D34B01C01A52410309DA
:1001E0008B4201D30B01C01A5241C3088B4201D389
:1001F000CB00C01A524183088B4201D38B00C01A36
:10020000524143088B4201D34B00C01A5241411A5C
:1002100000D20146524110467047FFE701B5002069
:1002200000F006F802BDC0460029F7D076E7704717
:100230007047C046002B11D1002A0FD1002900D1F0
:10024000002802D00021C943080007B4024802A1D7
:100250004018029003BDC046D9FFFFFF03B46846B3
:1002600001B5029800F034F8019B9E4602B00CBC28
:100270007047C046F0B5CE469946030C9C46130421
:1002800047461B0C1D000E0061460404240C80B57B
:100290000700100C4B436543414360432C0CC018CE
:1002A00024188C46A34203D980235B029846C44499
:1002B000494679435643230C2D042D0C8919634478
:1002C00024046019C918C0BCB946B046F0BDC04688
:1002D000F0B557464E464546DE46E0B504000D00F3
:1002E0009246994683B08B4230D82DD0494650462D
:1002F00000F0BAF829000600200000F0B5F8331A23
:100300009846203B34D49B4653465A469340424637
:100310001F00534693401E00AF423BD8AF4200D16E
:1003200079E05B46A41BBD41002B00DA76E0002299
:1003300000230092019301235A4693400193012325
:1003400042469340009329E08242CFD90022002305
:10035000009201930C9B002B01D01C605D60009803
:10036000019903B0F0BCBB46B246A946A046F0BD19
:1003700042469B4620239B1A5246DA4041461300D0
:100380004A468A40170042461F43534693401E0088
:10039000AF42C3D900220023009201934346002BB1
:1003A000D8D0FB0772081A4346467B080EE0AB42E2
:1003B00001D1A2420CD8A41A9D41012024196D41FB
:1003C0000021013E24184D41002E06D0AB42EED94B
:1003D000013E24196D41002EF8D1009801995B4629
:1003E00000196941002B24DB2B005A464446D340B8
:1003F0002A00E2401C005B461500002B2ADB260089
:100400009E40330026004746BE403200801A994184
:10041000009001919EE7A342BCD882E74246202388
:1004200000219B1A0022009101920122DA400192E0
:1004300085E7424620239B1A2A0046469A4023001D
:10044000F340444613432A00E2401C005B4615007B
:10045000002BD4DA42462F002023260097409B1A17
:10046000DE403B003343CDE710B5002903D100F057
:1004700007F8203002E0080000F002F810BDC04686
:100480001C2101231B04984201D3000C10391B0AC4
:10049000984201D3000A08391B09984201D3000988
:1004A000043902A2105C40187047C04604030202DF
:1004B00001010101000000000000000080B582B0D1
:1004C00000AF7860054B391D0548012202F0DEFFC0
:1004D0007B681800BD4602B080BDC046FFFF00002B
:1004E0001801002080B582B000AF78607B681A6880
:1004F0008023DB059A4204D1174B1021180000F02D
:10050000E4FE7B681A688023DB059A4220D1134BF6
:10051000180000F063FB03001A00114B1A80104B07
:100520001B881A000F4B1100180003F087FD0B4BBE
:100530000521180000F08AFB03001A000A4B1A80FC
:10054000094B1B881A00094B1100180003F076FDB7
:10055000C046BD4602B080BD0004005084000020AB
:10056000A0010020504E0008A20100206C4E00089F
:1005700080B500AF00F0D0FB00F01CF800F04EF9A1
:1005800000F01CF900F0C4F800F082F8064B1800E7
:1005900002F0BAFB054B180000F00DFB044B1800ED
:1005A00003F0B2FDC046FDE7D80000208400002023
:1005B000844E000890B599B000AF2C243B19180068
:1005C00034231A00002103F095FE1823FB181800AD
:1005D00014231A00002103F08DFE3B00180018239D
:1005E0001A00002103F086FE274B1B68274A1A4099
:1005F000254B802109010A431A6021007B18102233
:100600001A607B1801229A617B180022DA617B183C
:10061000A02212021A627B1800225A627B1818006C
:1006200001F066FC031E01D000F03CF918217B1894
:100630000F221A607B1800225A607B1800229A60F1
:100640007B180022DA607B1800221A617B180021D7
:10065000180001F0C9FF031E01D000F023F93B0090
:100660000A221A603B0000229A603B0000221A61B5
:100670003B00180002F0DCF9031E01D000F012F973
:10068000C046BD4619B090BD00700040FFE7FFFFB7
:1006900080B500AF1C4B1D4A1A601B4BC122D20013
:1006A0005A60194B00229A60174B0122DA60164BF0
:1006B00000221A61144B00225A61134B00229A61E6
:1006C000114B0022DA61104B00221A620E4B180007
:1006D00000F016FE031E01D000F0E4F80A4B0021E2
:1006E000180001F06DFB031E01D000F0DBF8064B93
:1006F0000021180001F0B0FB031E01D000F0D2F879
:10070000C046BD4680BDC046840000200054004065
:1007100080B586B000AF0823FB18180010231A001C
:10072000002103F0E7FD3B00180008231A00002118
:1007300003F0E0FD1F4B8022D2051A601D4B83227F
:1007400012015A601B4B00229A601A4B1A4ADA6057
:10075000184B00221A61174B00225A61154B1800E2
:1007600002F092FA031E01D000F09CF808217B18D9
:10077000802252011A607A180E4B1100180002F004
:10078000F7FB031E01D000F08DF83B0000221A6039
:100790003B0000225A603A00064B1100180002F09C
:1007A000C9FD031E01D000F07DF8C046BD4606B06D
:1007B00080BDC046D8000020E703000080B500AF30
:1007C000144B154A1A60134BE12252025A60114B26
:1007D00000229A600F4B0022DA600E4B00221A6151
:1007E0000C4B0C225A610B4B00229A61094B0022E0
:1007F000DA61084B00221A62064B00225A62054B4E
:10080000180002F0EFFD031E01D000F04BF8C046C7
:10081000BD4680BD180100200044004090B589B05D
:1008200000AF0C243B19180014231A00002103F018
:1008300061FD1A4BDA6A194B01210A43DA62174B40
:10084000DB6A01221340BB60BB68144BDA6A134BAE
:1008500002210A43DA62114BDB6A022213407B60F9
:100860007B680F4B00221821180000F011FD2100B9
:100870007B1818221A607B1801225A607B1800220C
:100880009A607B180022DA607B18054A1900100074
:1008900000F090FBC046BD4609B090BD001002407C
:1008A0000004005080B500AF72B6C046C046FDE7F8
:1008B00080B500AF074B5A6B064B01210A435A63C0
:1008C000044B9A6B034B802149050A439A63C04647
:1008D000BD4680BD0010024090B589B000AF786081
:1008E0000C243B19180014231A00002103F002FD08
:1008F0007B681B68174A934228D1174BDA6A164B5C
:1009000002210A43DA62144BDB6A02221340BB6005
:10091000BB6821007B18C0221A607B1812225A6023
:100920007B1801229A607B180322DA607B1801226F
:100930001A617B18094A1900100000F03BFB064BB6
:100940009A6B054B802189030A439A63C046BD46D2
:1009500009B090BD00540040001002400004005057
:1009600080B582B000AF78607B681A688023DB05B1
:100970009A420DD1084B9A6B074B01210A439A63A7
:10098000002200210F2000F0E3FA0F2000F0F5FA1A
:10099000C046BD4602B080BD0010024090B589B08F
:1009A00000AF78600C243B19180014231A000021B2
:1009B00003F0A0FC7B681B68184A934229D1184BAE
:1009C0009A6B174B802189020A439A63144BDA6AA7
:1009D000134B01210A43DA62114BDB6A01221340F7
:1009E000BB60BB6821007B180E4A1A607B1802228C
:1009F0005A607B1800229A607B180322DA607B1809
:100A000004221A617A18A023DB051100180000F0F7
:100A1000D1FAC046BD4609B090BDC0460044004072
:100A2000001002400480000080B500AFC046FDE722
:100A300080B500AFC046FDE780B500AFC046BD46FB
:100A400080BD80B500AFC046BD4680BD80B500AF5B
:100A500000F0B6F9C046BD4680BD000080B500AFCD
:100A6000034B180002F09CF9C046BD4680BDC0464D
:100A7000D800002080B586B000AFF860B9607A6019
:100A800000237B610AE000E000BF0100BB685A1C44
:100A9000BA60CAB21A707B6901337B617A697B687C
:100AA0009A42F0DB7B681800BD4606B080BD80B579
:100AB00086B000AFF860B9607A6000237B6109E01E
:100AC000BB685A1CBA601B781800FFF7F7FC7B69FB
:100AD00001337B617A697B689A42F1DB7B6818009D
:100AE000BD4606B080BD80B582B000AF78600123FE
:100AF0005B421800BD4602B080BD80B582B000AF39
:100B0000786039603B68802292015A6000231800A7
:100B1000BD4602B080BD80B582B000AF78600123D1
:100B20001800BD4602B080BD80B584B000AFF8604B
:100B3000B9607A6000231800BD4604B080BD000093
:100B400080B586B000AF7860144A154BD31A7B612C
:100B50007B693B61134B1B68002B02D1114B124A7E
:100B60001A60104B1A687B68D3183A699A4207D208
:100B700003F016FC03000C221A6001235B4209E01B
:100B8000084B1B68FB60074B1A687B68D218054B43
:100B90001A60FB681800BD4606B080BD002000202A
:100BA00000040000A4010020F802002080B500AF7E
:100BB000C046BD4680BD80B584B000AF78600E21D0
:100BC0007B1800221A807B181A887B680021180085
:100BD00000F012F8C046BD4604B080BD80B582B0BA
:100BE00000AF78607B680421180000F02FF8030044
:100BF0001800BD4602B080BD80B586B002AF7860F7
:100C000008001100FB1C021C1A703B000A1C1A8011
:100C10000C217B18FA1C12781A703B001B88DAB280
:100C20007B185A703B001B881B0A9BB2DAB27B18F8
:100C30009A707A187868FA235B00009303232021C6
:100C400000F0F4FBC046BD4604B080BDB0B588B02E
:100C500004AF78600A00FB1C1A700C217B1800227C
:100C60001A80FB1C1B789AB20F257C197868FA232E
:100C70005B000293022301937B1800930123202140
:100C800000F0DCFC030023707B191B78002B08D0DC
:100C90007B191A780A4B1100180003F0CFF90023D2
:100CA0000AE00C217B185B781B021AB27B181B78B8
:100CB0001BB213431BB29BB21800BD4604B0B0BDBB
:100CC000984E00080D488546FFF770FF0C480D4907
:100CD0000D4A002302E0D458C4500433C4188C4297
:100CE000F9D30A4A0A4C002301E013600432A242FD
:100CF000FBD303F05BFBFFF73BFCFEE7002000208B
:100D000000000020680000206C4F000868000020F0
:100D1000F8020020FEE7000080B582B000AFFB1DA6
:100D200000221A700B4B1A680A4B40210A431A60C2
:100D3000002000F011F8031E03D0FB1D01221A70E1
:100D400001E0FFF7B5FDFB1D1B781800BD4602B0A2
:100D500080BDC0460020024090B583B000AF7860EF
:100D6000144B1C68144B1B781900FA239800FFF7EA
:100D7000D5F9030019002000FFF7D0F9030018008F
:100D800000F00BF9031E01D001230FE07B68032B59
:100D90000BD8796801235B420022180000F0D8F8D4
:100DA000064B7A681A60002300E001231800BD4654
:100DB00003B090BD000000200800002004000020C7
:100DC00080B500AF054B1B781A00054B1B68D21885
:100DD000034B1A60C046BD4680BDC04608000020D7
:100DE000A801002080B500AF024B1B681800BD466B
:100DF00080BDC046A801002080B582B000AF0200CF
:100E0000FB1D1A70FB1D1B787F2B09D8FB1D1B785F
:100E10001A001F231A40044B012191400A001A6056
:100E2000C046BD4602B080BD00E100E090B583B091
:100E300000AF02003960FB1D1A70FB1D1B787F2B71
:100E400028D82F4AFB1D1B785BB29B08C0339B0040
:100E50009B58FA1D1278110003220A40D200FF218C
:100E600091400A00D2431A4011003B689B01FF22C7
:100E70001A40FB1D1B78180003230340DB009A4037
:100E80001F48FB1D1B785BB29B080A43C0339B00C5
:100E90001A5031E01B4AFB1D1B7819000F230B4031
:100EA000083B9B0806339B00D31804331B68FA1DCC
:100EB0001278110003220A40D200FF2191400A005B
:100EC000D2431A4011003B689B01FF221A40FB1DD0
:100ED0001B78180003230340DB009A400948FB1DE0
:100EE0001B781C000F232340083B9B080A43063352
:100EF0009B00C31804331A60C046BD4603B090BDC2
:100F000000E100E000ED00E080B582B000AF786065
:100F10007B685A1E80235B049A4201D3012310E0B0
:100F20000A4B7A68013A5A6001235B420321180098
:100F3000FFF77CFF054B00229A60044B07221A60E2
:100F400000231800BD4602B080BDC04610E000E09E
:100F500080B584B000AFB9607A600F217B18021CA5
:100F60001A70BA687B181B785BB211001800FFF783
:100F70005DFFC046BD4604B080BD80B582B000AF05
:100F80000200FB1D1A70FB1D1B785BB21800FFF7F7
:100F900033FFC046BD4602B080BD80B582B000AF11
:100FA00078607B681800FFF7AFFF03001800BD46AC
:100FB00002B080BD80B586B000AF78603960002394
:100FC0007B610023FB6000233B6149E13B681B68B8
:100FD00001217A6991400A001340FB60FB68002BF5
:100FE00000D13AE13B685B6803221340012B05D036
:100FF0003B685B6803221340022B30D17B689B68FF
:101000003B617B695B0003229A401300DA433B6932
:1010100013403B613B68DA687B695B009A401300D0
:101020003A6913433B617B683A699A607B685B6805
:101030003B6101227B699A401300DA433B6913400C
:101040003B613B685B681B0901221A407B699A403F
:1010500013003A6913433B617B683A695A603B6805
:101060005B6803221340032B17D07B68DB683B616E
:101070007B695B0003229A401300DA433B6913400B
:101080003B613B689A687B695B009A4013003A6950
:1010900013433B617B683A69DA603B685B68032213
:1010A0001340022B23D17B69DA087B680832920057
:1010B000D3583B617B69072213409B000F229A4063
:1010C0001300DA433B6913403B613B681A697B6953
:1010D00007210B409B009A4013003A6913433B6180
:1010E0007B69DA087B68083292003969D1507B68E5
:1010F0001B683B617B695B0003229A401300DA4363
:101100003B6913403B613B685B6803221A407B6983
:101110005B009A4013003A6913433B617B683A696C
:101120001A603B685A68C0239B02134000D194E0C8
:10113000514B5A6B504B01210A435A634F4A7B690A
:101140009B0802339B009B583B617B690322134041
:101150009B000F229A401300DA433B6913403B6126
:101160007A68A023DB059A4213D07B68444A9342F5
:101170000DD07B68434A934207D07B68424A934232
:1011800001D1052306E0062304E0022302E0012347
:1011900000E000237A6903210A40920093403A69F3
:1011A00013433B6135497B699B0802339B003A69D5
:1011B0005A50364B9B683B61FB68DA433B691340EE
:1011C0003B613B685A6880235B03134003D03A6954
:1011D000FB6813433B612D4B3A699A602B4BDB68EC
:1011E0003B61FB68DA433B6913403B613B685A68EB
:1011F00080239B03134003D03A69FB6813433B6190
:10120000224B3A69DA60214B5B683B61FB68DA4349
:101210003B6913403B613B685A6880239B02134043
:1012200003D03A69FB6813433B61184B3A695A6033
:10123000164B1B683B61FB68DA433B6913403B611B
:101240003B685A6880235B02134003D03A69FB680D
:1012500013433B610D4B3A691A607B6901337B6133
:101260003B681A687B69DA40131E00D0AEE6C046C0
:10127000C046BD4606B080BD0010024000000140DF
:101280000004005000080050001C00500004014001
:1012900080B582B000AF786008001100BB1C021C52
:1012A0001A807B1C0A1C1A707B1C1B78002B04D034
:1012B000BB1C1A887B689A6103E0BB1C1A887B6898
:1012C0009A62C046BD4602B080BD80B584B000AF12
:1012D00078600A00BB1C1A807B685B69FB60BB1CE2
:1012E0001B88FA6813401A04FB68DB43B91C0988A1
:1012F0000B401A437B689A61C046BD4604B080BD6E
:1013000080B582B000AF78607B68002B01D10123EB
:1013100082E07B6841229B5CDBB2002B07D17B68BB
:101320004022002199547B681800FFF7D5FA7B68AA
:101330004122242199547B681B681A687B681B68CA
:1013400001218A431A607B685A687B681B683449AC
:101350000A401A617B681B689A687B681B68314980
:101360000A409A607B68DB68012B08D17B689A6829
:101370007B681B68802109020A439A6007E07B684A
:101380009A687B681B68842109020A439A607B681B
:10139000DB68022B04D17B681B68802212015A6033
:1013A0007B681B685A687B681B681F490A435A6040
:1013B0007B681B68DA687B681B681A490A40DA6038
:1013C0007B681A697B685B691A4311007B689B69BB
:1013D0001A027B681B680A43DA607B68D9697B68FC
:1013E0001A6A7B681B680A431A607B681B681A6864
:1013F0007B681B6801210A431A607B6800225A64DB
:101400007B684122202199547B6800221A637B6803
:1014100042220021995400231800BD4602B080BD2D
:10142000FFFFFFF0FF7FFFFF0080000290B589B053
:1014300002AFF86008007A6019000A23FB18021C4A
:101440001A800823FB180A1C1A80FB6841229B5C47
:10145000DBB2202B00D0E7E0FB6840229B5C012B35
:1014600001D10223E1E0FB68402201219954FFF7FA
:10147000B9FC03007B6180231902F8687B69009343
:101480001923012200F092FA031E01D00123CCE0BF
:10149000FB68412221219954FB6842221021995472
:1014A000FB6800225A64FB687A685A62FB6808226B
:1014B000BA1812885A85FB6800225A63FB685B8D54
:1014C0009BB2FF2B11D9FB68FF221A85FB681B8D8D
:1014D000DAB280235C040A23FB181988F868554B9C
:1014E0000093230000F032FC75E0FB685B8D9AB23C
:1014F000FB681A85FB681B8DDAB280239C040A23E3
:10150000FB181988F8684B4B0093230000F01EFC71
:1015100061E07A69B96AFB68180000F095FA031E69
:1015200001D0012381E0FB685B6A1A78FB681B68C5
:101530009A62FB685B6A5A1CFB685A62FB685B8DA7
:101540009BB2013B9AB2FB685A85FB681B8D013B3D
:101550009AB2FB681A85FB685B8D9BB2002B3AD070
:10156000FB681B8D002B36D1BA6AF8687B69009343
:1015700013000022802100F019FA031E01D001237C
:1015800053E0FB685B8D9BB2FF2B11D9FB68FF22F8
:101590001A85FB681B8DDAB280235C040A23FB18D2
:1015A0001988F86800230093230000F0CFFB12E0B5
:1015B000FB685B8D9AB2FB681A85FB681B8DDAB2FB
:1015C00080239C040A23FB181988F86800230093E1
:1015D000230000F0BBFBFB685B8D9BB2002B98D116
:1015E0007A69B96AFB68180000F074FA031E01D02A
:1015F00001231AE0FB681B682022DA61FB681B6884
:101600005A68FB681B680C490A405A60FB68412213
:1016100020219954FB68422200219954FB68402202
:1016200000219954002300E002231800BD4607B0B2
:1016300090BDC0460020008000E800FE90B589B053
:1016400002AFF8600C00100019000A23FB18221CDE
:101650001A800823FB18021C1A80BB1D0A1C1A8062
:10166000FB6841229B5CDBB2202B00D010E1BB6AFF
:10167000002B04D02C23FB181B88002B05D1FB6802
:10168000802292005A64012303E1FB6840229B5CA4
:10169000012B01D10223FCE0FB6840220121995477
:1016A000FFF7A0FB03007B6180231902F8687B69C8
:1016B00000931923012200F079F9031E01D00123C0
:1016C000E7E0FB68412222219954FB684222402135
:1016D0009954FB6800225A64FB68BA6A5A62FB6834
:1016E0002C22BA1812885A85FB6800225A63BB1D47
:1016F0001C880823FB181A880A23FB181988F86825
:101700007B6901933B6B0093230000F0CBF8031E31
:1017100005D0FB684022002199540123B9E0FB6801
:101720005B8D9BB2FF2B11D9FB68FF221A85FB68EA
:101730001B8DDAB280235C040A23FB181988F86831
:10174000564B0093230000F001FB12E0FB685B8D19
:101750009AB2FB681A85FB681B8DDAB280239C0461
:101760000A23FB181988F8684C4B0093230000F0FB
:10177000EDFA3A6BF8687B690093130000220421AC
:1017800000F014F9031E01D0012382E0FB681B68FE
:101790005A6AFB685B6AD2B21A70FB685B6A5A1CB1
:1017A000FB685A62FB681B8D013B9AB2FB681A8585
:1017B000FB685B8D9BB2013B9AB2FB685A85FB6864
:1017C0005B8D9BB2002B3AD0FB681B8D002B36D172
:1017D0003A6BF8687B69009313000022802100F0C7
:1017E000E5F8031E01D0012353E0FB685B8D9BB23B
:1017F000FF2B11D9FB68FF221A85FB681B8DDAB21B
:1018000080235C040A23FB181988F86800230093DE
:10181000230000F09BFA12E0FB685B8D9AB2FB6834
:101820001A85FB681B8DDAB280239C040A23FB18FF
:101830001988F86800230093230000F087FAFB68FA
:101840005B8D9BB2002B94D17A69396BFB681800D1
:1018500000F040F9031E01D001231AE0FB681B6869
:101860002022DA61FB681B685A68FB681B680C4918
:101870000A405A60FB68412220219954FB684222A9
:1018800000219954FB68402200219954002300E074
:1018900002231800BD4607B090BDC046002400805A
:1018A00000E800FEB0B586B002AFF8600C00100092
:1018B00019000A257B19221C1A800823FB18021C18
:1018C0001A80BB1D0A1C1A80BB1D1B88DAB27B194B
:1018D0001988F868234B0093002300F037FA7A6ADE
:1018E000396AFB68180000F0AFF8031E01D001232D
:1018F00033E0BB1D1B88012B07D10823FB181B8875
:10190000DAB2FB681B689A6219E00823FB181B888F
:101910001B0A9BB2DAB2FB681B689A627A6A396A60
:10192000FB68180000F090F8031E01D0012314E0BA
:101930000823FB181B88DAB2FB681B689A623A6AB4
:10194000F8687B6A009313000022402100F02EF813
:10195000031E01D0012300E000231800BD4604B09F
:10196000B0BDC0460020008080B582B000AF786076
:101970007B681B689B6902221340022B03D17B68A2
:101980001B6800229A627B681B689B6901221340D6
:10199000012B07D07B681B689A697B681B68012153
:1019A0000A439A61C046BD4602B080BD80B584B08E
:1019B00000AFF860B9603B60FB1D1A7030E03B6817
:1019C00001332DD0FFF70EFA0200BB69D31A3A6833
:1019D0009A4202D33B68002B22D1FB681B689B69AB
:1019E000BA681340BA68D31A5A425341DBB21A009C
:1019F000FB1D1B789A4213D1FB685B6C20221A43B3
:101A0000FB685A64FB68412220219954FB684222FA
:101A100000219954FB6840220021995401230FE0D2
:101A2000FB681B689B69BA681340BA68D31A5A42AC
:101A30005341DBB21A00FB1D1B789A42BFD0002332
:101A40001800BD4604B080BD80B584B000AFF8601A
:101A5000B9607A6032E07A68B968FB68180000F013
:101A60007DF8031E01D0012330E0BB68013325D08F
:101A7000FFF7B8F902007B68D31ABA689A4202D31A
:101A8000BB68002B1AD1FB681B689B6902221340BC
:101A9000022B13D0FB685B6C20221A43FB685A644C
:101AA000FB68412220219954FB684222002199546D
:101AB000FB68402200219954012307E0FB681B6862
:101AC0009B6902221340022BC5D100231800BD469A
:101AD00004B080BD80B584B000AFF860B9607A60B2
:101AE0002FE07A68B968FB68180000F037F8031E29
:101AF00001D001232DE0FFF775F902007B68D31AAE
:101B0000BA689A4202D3BB68002B1AD1FB681B68E3
:101B10009B6920221340202B13D0FB685B6C202292
:101B20001A43FB685A64FB68412220219954FB68E0
:101B3000422200219954FB6840220021995401233C
:101B400007E0FB681B689B6920221340202BC8D14B
:101B500000231800BD4604B080BD000080B58AB0E7
:101B600000AFF860B9607A602723FB1800221A7072
:101B7000FB681B689B69BB6100233B627B68FB6160
:101B8000BB691022134000D179E0FB681B6810226A
:101B9000DA6157E02722BB18BA1812781A70BB68AE
:101BA00001334FD0FFF71EF90200FB69D31ABA6860
:101BB0009A4202D3BB68002B44D1FB681B685A6869
:101BC0008023DB0113407B6113203B18FA6842211C
:101BD000525C1A70FB681B689A6980231B021A40CA
:101BE00080231B029A4226D17A698023DB019A4224
:101BF00021D03B181B78202B1DD0FB681B685A682E
:101C0000FB681B688021C9010A435A60FFF7EAF8A4
:101C10000300FB610FE0FFF7E5F80200FB69D31A50
:101C2000192B08D93B6A202213433B622723FB1858
:101C300001221A7006E0FB681B689B692022134092
:101C4000202BE8D1FB681B689B6920221340202BC6
:101C500004D02723FB181B78002B9BD02723FB18CD
:101C60001B78002B03D1FB681B682022DA613B6ADA
:101C7000042213433B622723FB1801221A70FB68DE
:101C80001B689B69BB61BA6980235B0013400CD061
:101C90003B6A012213433B62FB681B6880225200AF
:101CA000DA612723FB1801221A70BA698023DB004E
:101CB00013400CD03B6A082213433B62FB681B684D
:101CC0008022D200DA612723FB1801221A70BA6938
:101CD00080239B0013400CD03B6A022213433B62DB
:101CE000FB681B6880229200DA612723FB1801221F
:101CF0001A702723FB181B78002B1DD0FB681800D7
:101D0000FFF732FEFB681B685A68FB681B680E49C8
:101D10000A405A60FB685A6C3B6A1A43FB685A6473
:101D2000FB68412220219954FB68422200219954EA
:101D3000FB684022002199542723FB181B781800C8
:101D4000BD460AB080BDC04600E800FE90B587B031
:101D500000AFF860080011007B600A243B19021CE8
:101D60001A8009203B180A1C1A703B191B889B0516
:101D70009A0D3B181B781904FF231B040B401A43D0
:101D80007B681A43BB6A13435B005B087B61FB689B
:101D90001B685B68BA6A510D8022D2000A4007496D
:101DA0000A43D2431A401100FB681B687A690A4350
:101DB0005A60C046BD4607B090BDC046FF63FF03F2
:101DC00080B582B000AF786039607B6841229B5C4F
:101DD000DBB2202B38D17B6840229B5C012B01D1E8
:101DE000022332E07B684022012199547B68412222
:101DF000242199547B681B681A687B681B68012141
:101E00008A431A607B681B681A687B681B681149E3
:101E10000A401A607B681B6819687B681B683A680F
:101E20000A431A607B681B681A687B681B6801217B
:101E30000A431A607B684122202199547B68402222
:101E400000219954002300E002231800BD4602B08F
:101E500080BDC046FFEFFFFF80B584B000AF786063
:101E600039607B6841229B5CDBB2202B39D17B68D7
:101E700040229B5C012B01D1022333E07B6840228E
:101E8000012199547B684122242199547B681B6865
:101E90001A687B681B6801218A431A607B681B688B
:101EA0001B68FB60FB68114A1340FB603B681B0228
:101EB000FA681343FB607B681B68FA681A607B68EA
:101EC0001B681A687B681B6801210A431A607B68DB
:101ED0004122202199547B684022002199540023FB
:101EE00000E002231800BD4604B080BDFFF0FFFFF4
:101EF000B0B58AB000AF78607B68002B02D10123B7
:101F000000F06CFBC84BDB680C221340FB61C64B36
:101F1000DA6880235B021340BB617B681B68012287
:101F2000134000D17DE0FB69082B07D0FB690C2B27
:101F300012D1BA6980235B029A420DD1BA4B1A685A
:101F400080239B02134000D16AE07B685B68002B12
:101F500066D1012300F042FB7B685A6880235B0254
:101F60009A4207D1B04B1A68AF4B802149020A430D
:101F70001A6027E07B685A68A023DB029A420ED1E0
:101F8000A94B1A68A84B8021C9020A431A60A64BC4
:101F90001A68A54B802149020A431A6012E0A24B3D
:101FA0001A68A14BA1490A401A609F4B1A68802306
:101FB0005B021340FB60FB689B4B1A689A4B9C4981
:101FC0000A401A607B685B68002B14D0FEF70AFF9A
:101FD00003007B6108E0FEF705FF02007B69D31A6E
:101FE000642B01D90323F9E28F4B1A6880239B02EB
:101FF0001340F0D015E0FEF7F5FE03007B6108E02A
:10200000FEF7F0FE02007B69D31A642B01D903238B
:10201000E4E2854B1A6880239B021340F0D100E074
:10202000C0467B681B680222134000D199E07B68A0
:10203000DB687B627B6A2022134009D07A4B1A68E6
:10204000794B20210A431A607B6A202293437B62EA
:10205000FB69042B05D0FB690C2B3ED1BB69002B1F
:102060003BD1714B1B680422134004D07B6A002BC8
:1020700001D10123B2E26C4B5B686E4A1340190038
:102080007B681B691A02684B0A435A60664B1B68DF
:10209000092293431900644B7A6A0A431A6000F0DC
:1020A000EBFB0100604BDB681B090F221340624A07
:1020B000D35C0A00DA40614B1A60614B1B68132540
:1020C0007C191800FEF748FE030023707B191B786B
:1020D000002B46D07B191B7880E27B6A002B27D02F
:1020E000514B1B680922934319004F4B7A6A0A43EC
:1020F0001A60FEF777FE03007B6108E0FEF772FED0
:1021000002007B69D31A022B01D9032366E2464BF6
:102110001B6804221340F1D0434B5B68454A1340CF
:1021200019007B681B691A023F4B0A435A6018E08A
:102130003D4B1A683C4B01218A431A60FEF752FE60
:1021400003007B6108E0FEF74DFE02007B69D31AB5
:10215000022B01D9032341E2334B1B6804221340B5
:10216000F1D17B681B681022134000D1A1E0FB690C
:10217000002B40D12C4B1A6880239B00134005D0C4
:102180007B689B69002B01D1012327E2264B5B680A
:102190002C4A134019007B681A6A234B0A435A6081
:1021A000214B5B681B02190A7B68DB691A061E4B10
:1021B0000A435A607B681B6A5B0B01338022120260
:1021C0009A40194BDB681B090F210B401A49CB5C65
:1021D000DA401A4B1A601A4B1B6813257C19180039
:1021E000FEF7BAFD030023707B191B78002B60D02B
:1021F0007B191B78F2E17B689B69002B3FD00A4B6F
:102200001A68094B802149000A431A60FEF7EAFD6B
:1022100003007B6118E0FEF7E5FD02007B69D31A3D
:10222000022B11D90323D9E100100240FFFFFEFF6A
:10223000FFFFFBFFFFE0FFFFBC4E00080000002097
:1022400004000020FF1FFFFFC94B1A6880239B007A
:102250001340E0D0C64B5B68C64A134019007B6848
:102260001A6AC34B0A435A60C14B5B681B02190AC6
:102270007B68DB691A06BE4B0A435A6019E0BC4B07
:102280001A68BB4BBC490A401A60FEF7ABFD03005D
:102290007B6108E0FEF7A6FD02007B69D31A022BE2
:1022A00001D903239AE1B24B1A6880239B001340A3
:1022B000F0D17B681B680822134036D07B685B69CD
:1022C000002B19D0AA4B1A6DA94B01210A431A659C
:1022D000FEF788FD03007B6108E0FEF783FD020046
:1022E0007B69D31A022B01D9032377E1A04B1B6D25
:1022F00002221340F1D018E09D4B1A6D9C4B012136
:102300008A431A65FEF76EFD03007B6108E0FEF765
:1023100069FD02007B69D31A022B01D903235DE119
:10232000934B1B6D02221340F1D17B681B68042282
:10233000134000D1AEE023203B1800221A708C4BD2
:102340009A6B80235B05134009D1894B9A6B884BAC
:10235000802149050A439A633B1801221A70874B72
:102360001A6880235B0013401AD1844B1A68834B90
:10237000802149000A431A60FEF734FD03007B61A7
:1023800008E0FEF72FFD02007B69D31A642B01D908
:10239000032323E1794B1A6880235B001340F0D0BC
:1023A0007B689A6880235B009A4207D1704B1A6D54
:1023B0006F4B802149000A431A6531E07B689B68B6
:1023C000002B0CD16A4B1A6D694B6B490A401A6598
:1023D000674B1A6D664B6A490A401A6520E07B68B4
:1023E0009A68A023DB009A420ED1614B1A6D604BB4
:1023F0008021C9000A431A655D4B1A6D5C4B802130
:1024000049000A431A650BE0594B1A6D584B5A495B
:102410000A401A65564B1A6D554B59490A401A65C0
:102420007B689B68002B15D0FEF7DCFC03007B610A
:1024300009E0FEF7D7FC02007B69D31A514A9342A8
:1024400001D90323CAE04A4B1A6D80239B00134035
:10245000EFD014E0FEF7C6FC03007B6109E0FEF755
:10246000C1FC02007B69D31A464A934201D9032377
:10247000B4E03F4B1A6D80239B001340EFD1232320
:10248000FB181B78012B05D1394B9A6B384B3E4911
:102490000A409A637B685B6A002B00D19DE0FB6970
:1024A0000C2B00D176E07B685B6A022B45D1304B68
:1024B0001A682F4B35490A401A60FEF793FC030057
:1024C0007B6108E0FEF78EFC02007B69D31A022BC9
:1024D00001D9032382E0264B1A6880239B04134012
:1024E000F0D1234BDB682A4A134019007B689A6AB3
:1024F0007B68DB6A1A437B681B6B1A431C4B0A43DD
:10250000DA601B4B1A681A4B802149040A431A608F
:10251000FEF768FC03007B6108E0FEF763FC020045
:102520007B69D31A022B01D9032357E0104B1A6899
:1025300080239B041340F0D04FE00D4B1A680C4BE6
:1025400012490A401A60FEF74DFC03007B6108E067
:10255000FEF748FC02007B69D31A022B01D9032342
:102560003CE0034B1A6880239B041340F0D134E015
:1025700000100240FF1FFFFFFFFEFFFF0070004042
:10258000FFFBFFFF88130000FFFFFFEFFFFFFFFED1
:10259000FFFF02FF7B685B6A012B01D101231DE075
:1025A000104BDB68BB61BA6980235B021A407B6811
:1025B0009B6A9A420FD1BA69F0239B031A407B6849
:1025C000DB6A9A4207D1BA69C0231B041A407B68B0
:1025D0001B6B9A4201D0012300E000231800BD4686
:1025E0000AB0B0BD00100240B0B584B000AF786052
:1025F00039607B68002B01D1012328E1964B1B68D1
:10260000012213403A689A421ED9934B1B6801225B
:1026100093431900904B3A680A431A60FEF7E2FBB5
:102620000300FB6009E0FEF7DDFB0200FB68D31A44
:102630008A4A934201D9032309E1874B1B6801228F
:1026400013403A689A42EED17B681B68022213401D
:1026500009D0834BDB68F022934319007B689A68AA
:102660007F4B0A43DA607B681B680122134000D16C
:1026700089E07B685B68022B07D1794B1A6880235D
:102680009B02134020D10123E1E07B685B68032BB0
:1026900007D1734B1A6880239B04134014D1012384
:1026A000D5E07B685B68012B06D16D4B1B6804226B
:1026B000134009D10123CAE0694B1A6880239B00AB
:1026C000134001D10123C2E0654BDB680322934331
:1026D00019007B685A68624B0A43DA60FEF782FB96
:1026E0000300FB607B685B68022B11D109E0FEF7F9
:1026F00079FB0200FB68D31A584A934201D903239D
:10270000A5E0574BDB680C221340082BEFD13AE0D1
:102710007B685B68032B11D109E0FEF763FB0200C5
:10272000FB68D31A4D4A934201D903238FE04C4BE7
:10273000DB680C2213400C2BEFD124E07B685B6834
:10274000012B1BD109E0FEF74DFB0200FB68D31AF9
:10275000424A934201D9032379E0414BDB680C22C2
:102760001340042BEFD10EE0FEF73CFB0200FB68A8
:10277000D31A3A4A934201D9032368E0384BDB6805
:102780000C221340F0D1344B1B68012213403A68ED
:102790009A421ED2304B1B680122934319002E4BE4
:1027A0003A680A431A60FEF71DFB0300FB6009E06C
:1027B000FEF718FB0200FB68D31A284A934201D99E
:1027C000032344E0244B1B68012213403A689A42D9
:1027D000EED17B681B680422134009D0204BDB68D4
:1027E000204A134019007B68DA681D4B0A43DA60FF
:1027F0007B681B68082213400AD0194BDB681A4A11
:10280000134019007B681B69DA00154B0A43DA6034
:1028100000F032F80100124BDB681B090F22134055
:10282000124AD35C0A00DA40114B1A60114B1B6844
:102830000B257C191800FEF78FFA030023707B1913
:102840001B78002B02D07B191B7800E000231800B6
:10285000BD4604B0B0BDC046002002408813000051
:1028600000100240FFF8FFFFFFC7FFFFBC4E00084B
:102870000000002004000020B0B58EB000AF4C4B2B
:10288000DB68FB62FA6A0C2313400C2B14D000D9CE
:102890007BE0042B02D0082B0BD076E0444B1B6866
:1028A0001022134002D0434B3B637CE0424B3B631E
:1028B00079E0424B3B6376E0FB6A9A0C0F231A40A7
:1028C0003F4B9B5CBB62FB6A9A0D032313400133B1
:1028D0007B62374BDA6880235B0213401AD0BB6AF5
:1028E000BB610023FB61354A0023B869F969FDF734
:1028F000C1FC02000B00100019007B6A3B61002341
:102900007B613A697B69FDF795FC02000B001300BF
:102910007B6337E0264B1B68102213401AD0BB6A3A
:10292000BB600023FB60234A0023B868F968FDF709
:10293000A1FC02000B00100019007B6A3B60002321
:102940007B603A687B68FDF775FC02000B001300A2
:102950007B6317E0BB6A180000231900164A0023A6
:10296000FDF788FC02000B00100019007B6A1C00B8
:1029700000231D0022002B00FDF75CFC02000B0071
:1029800013007B637B6B3B630DE0094B5B685B0B68
:10299000072213403B623B6A0133802212029A40B5
:1029A00013003B63C0463B6B1800BD460EB0B0BD84
:1029B0000010024000093D000024F40000127A00DB
:1029C000D44E000880B500AF024B1B681800BD460E
:1029D00080BDC0460000002080B500AFFFF7F2FFC9
:1029E0000100064BDB681B0A07221340044AD35C34
:1029F000D9400B001800BD4680BDC0460010024003
:102A0000CC4E000880B500AFFFF7DCFF0100064B9D
:102A1000DB68DB0A07221340044AD35CD9400B0071
:102A20001800BD4680BDC04600100240CC4E0008D4
:102A300080B586B000AF786017203B1800221A706E
:102A40007B681B682022134000D1C7E0844B9A6B3F
:102A500080235B05134009D1814B9A6B804B802109
:102A600049050A439A633B1801221A707D4B1A6884
:102A700080235B0013401AD17A4B1A68794B80216E
:102A800049000A431A60FEF7ADF903003B6108E014
:102A9000FEF7A8F902003B69D31A642B01D903237E
:102AA000D9E0704B1A6880235B001340F0D06C4B68
:102AB0001A68C0239B031340FB607B685A68C023DD
:102AC0009B031340FA689A4213D07B685A68C0236C
:102AD0009B021A40C0239B029A420AD1604B1A689B
:102AE00080239B021A4080239B029A4201D101233A
:102AF000B1E05B4B1A6DC0239B021340FB60FB6887
:102B0000002B3BD07B685A68C0239B021340FA68B5
:102B10009A4233D07B681B68202213402ED0504B42
:102B20001B6D514A1340FB604D4B1A6D4C4B80217D
:102B300009030A431A654A4B1A6D494B4B490A402F
:102B40001A65474BFA681A65FA6880235B001340E0
:102B500014D0FEF747F903003B6109E0FEF742F9A4
:102B600002003B69D31A424A934201D9032372E01F
:102B70003B4B1A6D80239B001340EFD07B681B6892
:102B8000202213401FD07B685A68C0239B021A4042
:102B9000C0239B029A420CD1314B1B68354A13402B
:102BA00019007B685A68C0239B031A402C4B0A43C8
:102BB0001A602B4B196D7B685A68C0239B021A4020
:102BC000274B0A431A651723FB181B78012B05D1E5
:102BD000234B9A6B224B28490A409A637B681B68F7
:102BE0000222134009D01E4BDB6C0C2293431900C8
:102BF0007B689A681A4B0A43DA647B681B68042274
:102C0000134009D0164BDB6C1C4A134019007B683B
:102C1000DA68134B0A43DA647B681B6808221340A6
:102C200009D00F4BDB6C164A134019007B681A69F8
:102C30000B4B0A43DA647B681B688022134009D07F
:102C4000074BDB6C0F4A134019007B685A69044B31
:102C50000A43DA6400231800BD4606B080BDC046B2
:102C60000010024000700040FFFFFCFFFFFFF7FF75
:102C700088130000FFFFCFFFFFFFFFEFFFF3FFFF11
:102C8000FFCFFFFFFFFFF3FF80B582B000AF78609A
:102C90007B68002B01D1012332E07B6839229B5CE9
:102CA000DBB2002B07D17B683822002199547B6866
:102CB0001800FDF755FE7B683922022199547B6884
:102CC0001A687B6804331900100000F045FA7B682D
:102CD0003E22012199547B683A22012199547B6854
:102CE0003B22012199547B683C22012199547B6845
:102CF0003D22012199547B683922012199540023F6
:102D00001800BD4602B080BD80B584B000AF7860C9
:102D10007B6839229B5CDBB2012B01D0012336E0BA
:102D20007B683922022199547B681B68DA687B68CA
:102D30001B6801210A43DA607B681A688023DB057F
:102D40009A4209D07B681B68134A934204D07B687F
:102D50001B68124A934211D17B681B689B6807224B
:102D60001340FB60FB68062B10D07B681B681A6859
:102D70007B681B6801210A431A6007E07B681B68B7
:102D80001A687B681B6801210A431A600023180037
:102D9000BD4604B080BDC04600080140001401409B
:102DA00080B582B000AF78607B681B681B69022227
:102DB0001340022B24D17B681B68DB68022213407E
:102DC000022B1DD17B681B68032252421A617B686B
:102DD00001221A767B681B689B690322134004D08A
:102DE0007B68180000F0A0F907E07B68180000F08D
:102DF00093F97B68180000F09FF97B6800221A762F
:102E00007B681B681B6904221340042B25D17B6857
:102E10001B68DB6804221340042B1ED17B681B68EF
:102E2000052252421A617B6802221A767B681B686F
:102E30009A69C0239B00134004D07B68180000F0FF
:102E400073F907E07B68180000F066F97B681800EA
:102E500000F072F97B6800221A767B681B681B6998
:102E600008221340082B24D17B681B68DB680822EA
:102E70001340082B1DD17B681B68092252421A613E
:102E80007B6804221A767B681B68DB690322134087
:102E900004D07B68180000F047F907E07B68180051
:102EA00000F03AF97B68180000F046F97B680022D0
:102EB0001A767B681B681B6910221340102B25D1E2
:102EC0007B681B68DB6810221340102B1ED17B68C7
:102ED0001B68112252421A617B6808221A767B68AD
:102EE0001B68DA69C0239B00134004D07B6818007C
:102EF00000F01AF907E07B68180000F00DF97B6814
:102F0000180000F019F97B6800221A767B681B68AC
:102F10001B6901221340012B0FD17B681B68DB6802
:102F200001221340012B08D17B681B680222524208
:102F30001A617B681800FDF7D5FA7B681B681B696E
:102F400040221340402B0FD17B681B68DB68402276
:102F50001340402B08D17B681B68412252421A6102
:102F60007B68180000F0F0F8C046BD4602B080BD96
:102F700080B584B000AF786039600F23FB18002261
:102F80001A707B6838229B5C012B01D10223BCE0C4
:102F90007B683822012199547B6839220221995497
:102FA0007B681B689B68BB60BB6877229343BB60F0
:102FB000BB68584A1340BB607B681B68BA689A605C
:102FC0003B681B6880229201934240D0802292018C
:102FD000934200D988E080225201934200D188E0D8
:102FE00080225201934200D97EE0702B18D000D984
:102FF0007AE0602B4FD000D976E0502B3BD000D93F
:1030000072E0402B57D000D96EE0302B63D06BD8E4
:10301000202B60D068D8002B5DD0102B5BD063E0F4
:103020007B6818683B6899683B685A683B68DB684E
:1030300000F060F97B681B689B68BB60BB68772207
:103040001343BB607B681B68BA689A6052E07B6878
:1030500018683B6899683B685A683B68DB6800F011
:1030600049F97B681B689A687B681B688021C901E5
:103070000A439A603EE07B6818683B6859683B6881
:10308000DB681A0000F0BCF87B681B685021180050
:1030900000F016F92EE07B6818683B6859683B68B9
:1030A000DB681A0000F0DAF87B681B686021180002
:1030B00000F006F91EE07B6818683B6859683B68B9
:1030C000DB681A0000F09CF87B681B684021180040
:1030D00000F0F6F80EE07B681A683B681B68190080
:1030E000100000F0EDF805E00F23FB1801221A7024
:1030F00000E0C0467B683922012199547B68382260
:10310000002199540F23FB181B781800BD4604B00A
:1031100080BDC046FF00FFFF80B582B000AF786081
:10312000C046BD4602B080BD80B582B000AF7860B9
:10313000C046BD4602B080BD80B582B000AF7860A9
:10314000C046BD4602B080BD80B582B000AF786099
:10315000C046BD4602B080BD80B584B000AF786087
:1031600039607B681B68FB607A688023DB059A42C4
:1031700007D07B681F4A934203D07B681E4A934264
:1031800008D1FB6870229343FB603B685B68FA6878
:103190001343FB607A688023DB059A4207D07B6883
:1031A000144A934203D07B68134A934208D1FB68C8
:1031B000124A1340FB603B68DB68FA681343FB600C
:1031C000FB68802293431A003B681B691343FB6032
:1031D0007B68FA681A603B689A687B68DA623B68C9
:1031E0001A687B689A627B6801225A61C046BD46B4
:1031F00004B080BD0008014000140140FFFCFFFF47
:1032000080B586B000AFF860B9607A60FB681B6A71
:103210007B61FB681B6A012293431A00FB681A62F8
:10322000FB689B693B613B69F02293433B617B6890
:103230001B013A6913433B617B690A2293437B611B
:103240007A69BB6813437B61FB683A699A61FB68E2
:103250007A691A62C046BD4606B080BD80B586B0A8
:1032600000AFF860B9607A60FB681B6A1022934374
:103270001A00FB681A62FB689B697B61FB681B6A2A
:103280003B617B690D4A13407B617B681B037A6954
:1032900013437B613B69A02293433B61BB681B01E5
:1032A0003A6913433B61FB687A699A61FB683A6942
:1032B0001A62C046BD4606B080BDC046FF0FFFFF84
:1032C00080B584B000AF786039607B689B68FB6034
:1032D000FB6870229343FB603A68FB681343072244
:1032E0001343FB607B68FA689A60C046BD4604B031
:1032F00080BD000080B586B000AFF860B9607A602C
:103300003B60FB689B687B617B69094A13407B617A
:103310003B681A027B681A43BB6813437A691343FC
:103320007B61FB687A699A60C046BD4606B080BD85
:10333000FF00FFFF80B584B000AF786039607B6824
:1033400038229B5C012B01D1022342E07B683822AA
:10335000012199547B683922022199547B681B68AA
:103360005B68FB607B681B689B68BB60FB687022C6
:103370009343FB603B681B68FA681343FB607B6800
:103380001B68FA685A607B681A688023DB059A42DA
:1033900009D07B681B68114A934204D07B681B6884
:1033A0000F4A93420CD1BB6880229343BB603B68B9
:1033B0005B68BA681343BB607B681B68BA689A6035
:1033C0007B683922012199547B6838220021995465
:1033D00000231800BD4604B080BDC046000801406F
:1033E0000014014080B582B000AF78607B68002B8C
:1033F00001D1012344E07B68DB6F002B07D17B68A0
:103400007822002199547B681800FDF7C7FA7B6881
:103410002422DA677B681B681A687B681B680121B5
:103420008A431A607B68180000F0D0F80300012B73
:1034300001D1012324E07B685B6A002B03D07B6809
:10344000180000F00DFB7B681B685A687B681B68DE
:103450000D490A405A607B681B689A687B681B6844
:103460002A218A439A607B681B681A687B681B68FC
:1034700001210A431A607B68180000F0A5FB0300D5
:103480001800BD4602B080BDFFB7FFFF80B58AB00F
:1034900002AFF860B9603B60BB1D1A80FB68DB6F50
:1034A000202B00D08CE0BB68002B03D0BB1D1B88F9
:1034B000002B01D1012384E0FB689A6880235B0123
:1034C0009A4209D1FB681B69002B05D1BB68012218
:1034D000134001D0012374E0FB688422002199503D
:1034E000FB682122DA67FDF77DFC03007B61FB6846
:1034F000BA1D502112885A52FB68BA1D52211288F7
:103500005A52FB689A6880235B019A4208D1FB6893
:103510001B69002B04D10023FB61BB68BB6103E086
:10352000BB68FB610023BB612FE07A69F8683B68E8
:10353000009313000022802100F0EEFB031E04D054
:10354000FB682022DA6703233BE0FB69002B0BD1E9
:10355000BB691B881A00FB681B68D205D20D9A62F2
:10356000BB690233BB6107E0FB691A78FB681B6823
:103570009A62FB690133FB61FB6852229B5A9BB242
:10358000013B99B2FB6852229952FB6852229B5A26
:103590009BB2002BC9D17A69F8683B68009313008D
:1035A0000022402100F0B8FB031E04D0FB6820225B
:1035B000DA67032305E0FB682022DA67002300E0D6
:1035C00002231800BD4608B080BD0000B0B58EB023
:1035D00000AFF8611A2318229B18DB1900221A7019
:1035E000FB699A68FB691B691A43FB695B691A43AB
:1035F000FB69DB6913437B63FB691B681B68B44A87
:1036000013401900FB691B687A6B0A431A60FB6957
:103610001B685B68AF4A13401900FB69DA68FB69F5
:103620001B680A435A60FB699B697B63FB691B68E3
:10363000A94A934204D0FB691B6A7A6B13437B63EC
:10364000FB691B689B68A54A13401900FB691B684E
:103650007A6B0A439A60FB691B68A14A934231D195
:10366000A04BDB6C0C2213400C2B1DD023D8082B55
:103670000CD020D8002B02D0042B0ED01BE01B2333
:1036800018229B18DB1900221A7065E01B231822F0
:103690009B18DB1902221A705EE01B2318229B186C
:1036A000DB1904221A7057E01B2318229B18DB1920
:1036B00008221A7050E01B2318229B18DB191022D5
:1036C0001A7049E0FB691B68834A93423ED1854BDF
:1036D000DA6CC0231B011340C0221201934227D091
:1036E000C022120193422AD880221201934211D0A3
:1036F00080221201934222D8002B04D08022D200D3
:1037000093420ED01BE01B2318229B18DB190022CA
:103710001A7021E01B2318229B18DB1902221A7051
:103720001AE01B2318229B18DB1904221A7013E0DD
:103730001B2318229B18DB1908221A700CE01B238C
:1037400018229B18DB1910221A7005E01B2318227F
:103750009B18DB1910221A70FB691B685E4A9342A2
:1037600000D084E01B2318229B18DB191B78082B40
:103770001DD020DC042B15D01DDC002B02D0022B29
:1037800005D018E0FFF728F90300FB621CE0554B59
:103790001B681022134002D0534BFB6214E0534BC2
:1037A000FB6211E0FFF768F80300FB620CE0802386
:1037B0001B02FB6208E00023FB621A2318229B18FD
:1037C000DB1901221A70C046FB6A002B00D12FE1E1
:1037D000FB695A6813005B009B18FA6A9A4205D38A
:1037E000FB695B681B03FA6A9A4206D91A231822FE
:1037F0009B18DB1901221A701AE1FB6A3B61002356
:103800007B6139697A690B001B0E100005021D43AC
:103810000B001C02FB695B685B08BB600023FB605C
:10382000B868F96800196941FB695B683B6000236F
:103830007B603A687B68FCF7FDFC02000B0013001C
:10384000BB62BA6AC0239B009A4209D3BA6A80233A
:103850005B039A4204D2FB691B68BA6ADA60E7E04C
:103860001A2318229B18DB1901221A70E0E0FB6969
:10387000DA6980231B029A4200D082E01B231822BF
:103880009B18DB191B78082B34D89A00184BD318D7
:103890001B689F46FFF7A0F80300FB6233E0FFF7C9
:1038A000B1F80300FB622EE00E4B1B6810221340A0
:1038B00002D00D4BFB6226E00C4BFB6223E0FEF7CF
:1038C000DBFF0300FB621EE080231B02FB621AE0A9
:1038D000F369FFEFFFCFFFFF00480040FFF4FFFF59
:1038E000004400400010024000093D000024F400A4
:1038F000E04E00080023FB621A2318229B18DB19F4
:1039000001221A70C046FB6A002B00D190E0FB6ACE
:103910005A00FB695B685B08D218FB695B68190099
:103920001000FCF7FBFB0300BB62BB6A0F2B21D925
:10393000BA6A80235B029A421CD2BB6A9AB20E20FA
:1039400018240319DB190F218A431A80BB6A5B080C
:103950009BB20722134099B20319DB190219D2193D
:1039600012880A431A80FB691B680219D21912884F
:10397000DA605DE01A2318229B18DB1901221A7005
:1039800056E01B2318229B18DB191B78082B22D822
:103990009A002F4BD3181B689F46FFF71DF80300B2
:1039A000FB6221E0FFF72EF80300FB621CE0294BCD
:1039B0001B681022134002D0274BFB6214E0274BF8
:1039C000FB6211E0FEF758FF0300FB620CE080236E
:1039D0001B02FB6208E00023FB621A2318229B18DB
:1039E000DB1901221A70C046FB6A002B20D0FB694C
:1039F0005B685A08FB6AD218FB695B681900100003
:103A0000FCF78CFB0300BB62BB6A0F2B0AD9BA6AB6
:103A100080235B029A4205D2BB6A9AB2FB691B689B
:103A2000DA6005E01A2318229B18DB1901221A70AC
:103A3000FB6900229A66FB690022DA661A231822C3
:103A40009B18DB191B781800BD460EB0B0BDC046F0
:103A5000044F00080010024000093D000024F4005B
:103A600080B582B000AF78607B685B6A012213404A
:103A70000BD07B681B685B684A4A134019007B685F
:103A80009A6A7B681B680A435A607B685B6A0222F9
:103A900013400BD07B681B685B68434A13401900D6
:103AA0007B68DA6A7B681B680A435A607B685B6ADA
:103AB000042213400BD07B681B685B683B4A1340B1
:103AC00019007B681A6B7B681B680A435A607B6825
:103AD0005B6A082213400BD07B681B685B68344A22
:103AE000134019007B685A6B7B681B680A435A6055
:103AF0007B685B6A102213400BD07B681B689B6855
:103B00002C4A134019007B689A6B7B681B680A4338
:103B10009A607B685B6A202213400BD07B681B682D
:103B20009B68254A134019007B68DA6B7B681B6829
:103B30000A439A607B685B6A402213401DD07B6811
:103B40001B685B681D4A134019007B681A6C7B6810
:103B50001B680A435A607B681A6C80235B039A4295
:103B60000BD17B681B685B68154A134019007B68A2
:103B70005A6C7B681B680A435A607B685B6A8022C8
:103B800013400BD07B681B685B680E4A134019001A
:103B90007B689A6C7B681B680A435A60C046BD46C6
:103BA00002B080BDFFFFFDFFFFFFFEFFFFFFFBFF39
:103BB000FF7FFFFFFFEFFFFFFFDFFFFFFFFFEFFFD5
:103BC000FFFF9FFFFFFFF7FF80B592B002AF786065
:103BD0007B68842200219950FDF704F90300FB6300
:103BE0007B681B681B6808221340082B2CD1FB6BD9
:103BF000802291037868464A0092002200F08CF8F7
:103C0000031E21D0EFF310837B627B6ABB63012329
:103C1000BB62BB6A83F31088C0467B681B681A6866
:103C20007B681B6880218A431A60BB6BFB62FB6A5E
:103C300083F31088C0467B682022DA677B6878228D
:103C40000021995403235FE07B681B681B680422F2
:103C50001340042B46D1FB6B8022D10378682C4A99
:103C60000092002200F058F8031E3BD0EFF31083BF
:103C7000FB60FB687B6301233B613B6983F3108836
:103C8000C0467B681B681A687B681B6821490A402C
:103C90001A607B6B7B617B6983F31088C046EFF30E
:103CA0001083BB61BB693B630123FB61FB6983F349
:103CB0001088C0467B681B689A687B681B68012176
:103CC0008A439A603B6B3B623B6A83F31088C04631
:103CD0007B688022202199507B68782200219954AA
:103CE000032311E07B682022DA677B688022202191
:103CF00099507B6800221A667B6800225A667B68AE
:103D000078220021995400231800BD4610B080BDD0
:103D1000FFFFFF01DFFEFFFF80B584B000AFF8605A
:103D2000B9603B60FB1D1A704BE0BB69013348D0A2
:103D3000FDF758F802003B68D31ABA699A4202D3D9
:103D4000BB69002B01D103234BE0FB681B681B6898
:103D50000422134035D0FB681B68DB69082213403E
:103D6000082B11D1FB681B6808221A62FB68180037
:103D700000F03CF8FB68842208219950FB68782207
:103D80000021995401232CE0FB681B68DA69802329
:103D90001B011A4080231B019A4212D1FB681B6849
:103DA000802212011A62FB68180000F01FF8FB68FD
:103DB000842220219950FB68782200219954032302
:103DC0000FE0FB681B68DB69BA681340BA68D31A56
:103DD0005A425341DBB21A00FB1D1B789A42A4D011
:103DE00000231800BD4604B080BD000080B58EB031
:103DF00000AF7860EFF310837B617B697B63012305
:103E0000BB61BB6983F31088C0467B681B681A6876
:103E10007B681B6826490A401A607B6BFB61FB6963
:103E200083F31088C046EFF310833B623B6A3B6329
:103E300001237B627B6A83F31088C0467B681B6822
:103E40009A687B681B6801218A439A603B6BBB625E
:103E5000BB6A83F31088C0467B681B6E012B18D1A8
:103E6000EFF31083BB60BB68FB620123FB60FB6860
:103E700083F31088C0467B681B681A687B681B68E0
:103E800010218A431A60FB6A3B613B6983F3108807
:103E9000C0467B688022202199507B6800221A66E8
:103EA0007B6800229A66C046BD460EB080BDC04603
:103EB000DFFEFFFF002310B5040003604360836052
:103EC00081814366C28103614361836119000822D5
:103ED0005C3000F00FFA0B4B246263620A4BA36262
:103EE0000A4BE3620A4B23630A4B9C4205D00A4B00
:103EF0009C4202D0094B9C4203D12000583000F074
:103F000079FA10BD1D410008454100087D410008B7
:103F1000A9410008AC010020140200207C0200200E
:103F200010B5034A0349044800F06CF810BDC046C0
:103F30000C000020854C00081C00002041680B4B41
:103F400010B50400994201D000F09CFEA168084B16
:103F5000994202D0200000F095FEE168054B99429D
:103F600002D0200000F08EFE10BDC046AC01002043
:103F7000140200207C02002010B5094B094A0421DC
:103F80001A6009480022FFF795FF0122092107481E
:103F9000FFF790FF022212210548FFF78BFF10BDAB
:103FA000E4020020213F0008AC01002014020020A0
:103FB0007C02002010B5024800F01DFA10BDC0467A
:103FC000ED02002010B5024800F016FA10BDC04600
:103FD000ED02002010B50400FFF7ECFF236A002B70
:103FE00002D0FFF7EFFF10BD044B2362044B1B68A8
:103FF000002BF6D1FFF7C0FFF3E7C0463D3F0008B6
:10400000E4020020F7B51400002600900191A56895
:104010006768013F04D52468002CF8D13000FEBD4C
:10402000AB89012B08D90E22AB5E013304D02900E5
:104030000098019B984706436835EAE70FB407B537
:10404000054904AB086804CB8168019300F0FAFAD3
:1040500003B008BC04B0184718000020036A70B50C
:1040600005000E008468002B01D1FFF7B3FF636EDB
:10407000DB0705D4A3899B0502D4A06D00F0BBF932
:10408000A3891B0702D52369002B1FD1210028001B
:1040900000F0D2F8002819D001256D42636EDB07CD
:1040A00005D4A3899B0502D4A06D00F0A5F92800D2
:1040B00070BD0136A360002B04DAA2699A4216DCB7
:1040C0000A2914D023685A1C22601970A368317819
:1040D000013B0029EDD1A360002B0FDA220028005C
:1040E0000A3100F067F80130D6D00A25D6E7220061
:1040F000280000F05FF80130E8D1CDE723685A1CB2
:1041000022600A221A70F0E710B5034B010018680C
:10411000FFF7A4FF10BDC0461800002070B50C00CA
:104120000E25495F00F014F9002803DB636D1B18AE
:10413000636570BDA389024A1340A381F9E7C046B5
:10414000FFEFFFFFF8B51F008B8905000C0016007C
:10415000DB0505D50E23C95E0022022300F0E4F83A
:10416000A389054A28001340A38132000E23E15E93
:104170003B0000F001F9F8BDFFEFFFFF70B50C0048
:104180000E25495F00F0D0F8A389421C03D1054AEF
:104190001340A38170BD802252011343A381606547
:1041A000F8E7C046FFEFFFFF10B50E23C95E00F031
:1041B000A9F810BDF8B506000D001400002804D0C1
:1041C000036A002B01D1FFF705FFA369A360A38950
:1041D0001B0702D52369002B09D12100300000F014
:1041E0002BF8002803D001256D422800F8BD236973
:1041F0002068EFB2C01A6369EDB2834205DC21008A
:10420000300000F03FFD0028EDD1A3680130013BF4
:10421000A36023685A1C22601F706369834204D024
:10422000A389DB07E1D50A2DDFD12100300000F0A2
:1042300029FD0028D9D0D6E72D4B70B505001868A8
:104240000C00002804D0036A002B01D1FFF7C2FE46
:104250000C23E25E130723D4D30607D409232B6073
:10426000402301201343A38140423AE0520713D573
:10427000616B002908D023004433994202D0280002
:1042800000F0BCF8002363632422A3899343A38135
:1042900000236360236923600823A2891343A38159
:1042A0002369002B0BD1A0218022A38989009200D1
:1042B0000B40934203D02100280000F039FD0C236D
:1042C000E25E012113000B400A420BD00023A360E1
:1042D00063695B42A36100202369834201D1130615
:1042E000BED470BD910700D46369A360F3E7C046F4
:1042F0001800002003008218934200D17047197003
:104300000133F9E7002370B5064D040008002B6067
:10431000FCF7E9FB431C03D12B68002B00D0236082
:1043200070BDC046E802002070B50400080011000E
:104330001A000023054D2B60FCF7F6FB431C03D14C
:104340002B68002B00D0236070BDC046E80200201F
:1043500070B50400080011001A000023054D2B6001
:10436000FCF788FB431C03D12B68002B00D0236093
:1043700070BDC046E802002070B5040008001100BE
:104380001A000023054D2B60FCF791FB431C03D161
:104390002B68002B00D0236070BDC046E8020020CF
:1043A000014B18687047C0461800002070B5002601
:1043B0000C4C0D4D641BA410A64209D1002600F040
:1043C0003BFD0A4C0A4D641BA410A64205D170BDEA
:1043D000B300EB5898470136EEE7B300EB58984727
:1043E0000136F2E7644F0008644F0008684F000888
:1043F000644F0008704770477047000070B50500B3
:104400000C1E10D0043C2368002B00DAE4182800AE
:1044100000F0E0F81D4A1368002B05D163601460BA
:10442000280000F0DFF870BDA34208D920682118E9
:104430008B42F3D119685B6809182160EEE71A0016
:104440005B68002B01D0A342F9D911685018A04233
:104450000BD120680918501811608342E0D1186808
:104460005B68411811605360DAE7A04202D90C235F
:104470002B60D5E7206821188B4203D119685B684F
:104480000918216063605460CAE7C046F402002046
:1044900070B50F4E0D0031680400002902D100F004
:1044A000ADFC30602900200000F0A8FC431C03D1C3
:1044B00001256D42280070BD0323C51C9D43A84201
:1044C000F8D0291A200000F099FC0130F2D1EFE772
:1044D000F0020020F7B50322CB1C934308330500FC
:1044E0001F000C2B34D20C27B94233D8280000F01F
:1044F00071F8374E33681C00002C2FD1390028008A
:10450000FFF7C6FF0400431C5FD134680094009B92
:10451000002B4AD1002C52D023682800E3180099C0
:10452000019300F06BFC019B834248D12368280073
:10453000FF1A3900FFF7ACFF013040D02368DB19C8
:10454000236033685A68002A33D1009B336019E036
:10455000002BC9DA0C232B600020FEBD2168C91B8B
:1045600020D40B290AD9E2192760A34204D1326072
:1045700063681160536005E05A60F9E76268A3421E
:104580000ED13260280000F02DF8200007220B30F9
:10459000231D9043C21A9842DFD01B1AA350DCE7B8
:1045A0005A60EFE723006468A6E7009C6368009305
:1045B000ADE71A005B68A342FBD10023DAE70C23C6
:1045C00028002B6000F00EF8C6E70760DAE7C04667
:1045D000F402002010B50248FFF70DFF10BDC046E1
:1045E000EC02002010B50248FFF706FF10BDC046E0
:1045F000EC020020936810B5013B9360002B04DAB5
:104600009469A34207DB0A2905D01368581C10607F
:104610001970080010BDFFF7CDFD0100F9E7F8B5EE
:1046200006000F001400D518AC4201D1002007E0AD
:1046300021783A003000FFF7DDFF0134431CF3D14D
:10464000F8BD0000F0B5A1B00F0015001E000390EA
:10465000002804D0036A002B01D1FFF7BBFC7B6E5E
:10466000DB0705D4BB899B0502D4B86DFFF7C3FEF9
:10467000BB891B0702D53B69002B13D13900039876
:10468000FFF7DAFD00280DD07B6EDB0703D5012094
:10469000404221B0F0BDBB899B05F8D4B86DFFF74F
:1046A000ABFEF4E7002308AC63612033637610337C
:1046B000A37607962E003378002B01D0252B48D106
:1046C000731B0593AE420BD02A0039000398FFF705
:1046D000A6FF013000D1AEE06369059A9B186361C3
:1046E0003378002B00D1A6E0012200235242626001
:1046F00004A954325218751C2360E360A360137040
:10470000A365594B052218002978059300F088FB12
:104710006E1C00281FD12268D30604D5532304A998
:104720005B1820211970130704D5532304A95B18C3
:104730002B2119702B782A2B16D02E0000210A204D
:10474000E3683278751C303A092A50D9002911D112
:1047500017E00136AFE7059B2268C01A01238340AA
:10476000134335002360CCE7079B191D1B68079195
:10477000002B01DB0B9304E05B42E3600223134355
:10478000236033782E2B0CD173782A2B34D1079BDE
:1047900002361A1D1B680792002B01DA01235B42C7
:1047A0000993324D03222800317800F039FB0028AC
:1047B00006D04023401B8340226801361343236008
:1047C000317806222A48751C217600F029FB002842
:1047D00040D0284B002B22D10722079B073393435D
:1047E000083307936369049A9B18636162E7434344
:1047F0002E0001219B18A4E700230A20190001368E
:1048000063603278751C303A092A03D9002BC8D06E
:104810000991C6E741432E0001238918F1E707AA51
:10482000009221003A00144B039800E000BF04906E
:10483000049B0133D6D17B6EDB0705D4BB899B0576
:1048400002D4B86DFFF7D8FDBB895B0600D51EE723
:104850000D981EE707AA009221003A00064B039824
:1048600000F07CF8E3E7C046284F00082E4F000810
:10487000324F0008000000001F460008F7B5160080
:1048800001938A680B690C000090934200DA1300D0
:104890002200336043321278002A01D001333360A2
:1048A00023689B0602D533680233336022680623EF
:1048B00015001D401A4227D0230043331B785A1E8F
:1048C00093412268920630D4220001990098089DF5
:1048D0004332A847013025D0062223680025134023
:1048E000042B05D13368E568ED1AEB43DB171D4057
:1048F000A3682269934201DD9B1AED180026B54298
:1049000020D1002010E00135E36832689B1AAB42E9
:10491000D2DD2200012301990098089F1932B8477F
:104920000130F0D101204042FEBD3020E11843317A
:10493000087021005A1C45310978A218433202330D
:104940001170C1E72200012301990098089F1A32D3
:10495000B8470130E6D00136D1E70000F0B58BB0A2
:1049600006920A0043320793059003920A7E0C00D8
:10497000109B782A09D8622A0BD8002A00D1BCE003
:104980007B490491582A00D190E0250042352A70D5
:1049900022E0100063381528F7D8FBF7B5FB1600A6
:1049A0001F00F6FFF6FFF6FFF6FF1F00F6FFF6FF0B
:1049B000F6FFF6FFA10036008000F6FFF6FFB2001A
:1049C000F6FF3600F6FFF6FF840025001A68423530
:1049D000111D196013682B700123A0E01868096885
:1049E000021D0D060BD506681A60002E03DA2D2372
:1049F000039A764213705E4B0A27049318E0066808
:104A00001A604906F1D536B2EFE70868196840C95F
:104A1000050602D4400600D5B6B21960544B0A27E9
:104A200004936F2A00D1023F2300002243331A70FF
:104A30006368A360002B03DB042122688A432260A1
:104A4000002E02D1039D002B0CD0039D30003900B5
:104A5000FBF7EAFB049B013D5B5C2B703300060017
:104A60009F42F3D9082F09D12368DB0706D5626876
:104A700023699A4202DC3023013D2B70039B5B1BB0
:104A80002361079B210000930598069B09AAFFF765
:104A9000F5FE013048D1012040420BB0F0BD20228C
:104AA00009680A4322607822324904912100453185
:104AB0000A701968226840C9100602D4500600D551
:104AC000B6B21960D30702D5202313432360002E0A
:104AD00001D01027A8E72022236893432360F8E73A
:104AE0001A680D68101D4969186013682E0601D5F3
:104AF000196002E06D06FBD519800023039D236138
:104B0000BFE71A68111D1960156800212800626846
:104B100000F086F9002801D0401B606063682361C3
:104B20000023039A1370ACE72A00236906990598BD
:104B3000079DA8470130AED023689B0715D4099B79
:104B4000E0689842A9DA1800A7E722000123069935
:104B50000598079E1932B04701309CD00135E368B3
:104B6000099A9B1AAB42F0DCE9E70025F7E7C0465B
:104B7000394F00084A4F0008F7B50C228B5E05003C
:104B80000C001A0756D44A68002A02DC0A6C002A74
:104B90004EDDE76A002F4BD0002280202E682A606D
:104BA0001A004001216A0240034233D0626DA3899A
:104BB0005B0706D56368D21A636B002B01D0236CA8
:104BC000D21A00232800E76A216AB847A289431C49
:104BD00006D129681D2946D8294B0B41DB0742D451
:104BE0000023636023692360D20405D5431C02D1EE
:104BF0002B68002B00D16065616B2E60002917D0F7
:104C000023004433994202D02800FFF7F7FB00232A
:104C100063630DE001232800B8470200431CC6D19E
:104C20002B68002BC3D01D2B01D0162B1AD12E6060
:104C300000201EE00E69002EFAD00F680E60BA1B2D
:104C4000019200229B0700D14A69A260019B002BC0
:104C5000EEDDA36A32001F002800019B216AB847DD
:104C6000002807DCA2894023012013431BB2A38143
:104C70004042FEBD019B36181B1A0193E6E7C04671
:104C8000FEFFBFDF0B6970B505000C00002B02D1E1
:104C90000025280070BD002804D0036A002B01D134
:104CA000FFF798F90C22A35E002BF1D0626ED207B9
:104CB00004D49B0502D4A06DFFF79DFB28002100C2
:104CC000FFF75AFF636E0500DB07E2D4A3899B055B
:104CD000DFD4A06DFFF790FBDBE7000070B50E009E
:104CE0001D000E23C95E140096B000290CDAB289AB
:104CF0008023110019401A4214D18023DB000020C8
:104D00002960236016B070BD6A4600F053F8002891
:104D1000EDDBF02301991B021940044BC9184B42EB
:104D20005941EAE700214023E9E7C04600E0FFFFE0
:104D3000F0B502268B8905000C0085B0334207D000
:104D400023004733236023610123636105B0F0BD75
:104D500003AB02AAFFF7C2FF029F019039002800AF
:104D6000FFF7B8FB002808D10C22A35E9A05EDD40A
:104D7000032293431E43A681E2E78023A289206099
:104D80001343A381039B20616761002B0CD0280093
:104D90000E23E15E00F020F8002805D00323A2894D
:104DA0009A43023B1343A381A389019A1343A3812E
:104DB000CCE70000002370B5064D04000800110088
:104DC0002B60FBF79AFE431C03D12B68002B00D00D
:104DD000236070BDE8020020002370B5064D04007A
:104DE00008002B60FBF797FE431C03D12B68002BB8
:104DF00000D0236070BDC046E8020020002370B5DB
:104E0000064D040008002B60FBF79AFE431C03D1FB
:104E10002B68002B00D0236070BDC046E802002044
:104E2000C9B28218904201D10020704703788B42AA
:104E3000FBD00130F6E70000F8B5C046F8BC08BC6E
:104E40009E467047F8B5C046F8BC08BC9E46704701
:104E5000416D6269656E74204C69676874204C65A9
:104E600076656C3A202575206C780A00576869745D
:104E700065204C69676874204C6576656C3A20251E
:104E8000750A000048414C20696E697420636F6D9B
:104E9000706C65746520000056454D4C36303330DB
:104EA000205265676973746572205265616420459C
:104EB00072726F723A2025640A0000000000000040
:104EC00000000000010203040607080900000000BA
:104ED00001020304030406080C101820300000002F
:104EE000943800089E380008A8380008F4380008F4
:104EF000BE380008F4380008F4380008F438000818
:104F0000C83800089A390008A4390008AE390008EA
:104F1000D6390008C4390008D6390008D639000847
:104F2000D6390008CE390008232D302B2000686CBC
:104F30004C006566674546470030313233343536BC
:104F400037383941424344454600303132333435F5
:0C4F500036373839616263646566000022
:084F5C0074B3FF7F01000000A7
:044F6400E900000858
:044F6800C10000087C
:104F6C000000200004000000010000000000000010
:104F7C0003000000AC0100201C0000200000000019
:104F8C00AC010020140200207C0200200000000074
:104F9C000000000000000000000000000000000005
:104FAC0000000000000000000000000000000000F5
:104FBC0000000000000000000000000000000000E5
:084FCC000000000000000000DD
:0400000508000CC51E
:00000001FF
